:020000040800F2
:100000006006002049010008510100085301000862
:1000100000000000000000000000000000000000E0
:100020000000000000000000000000005501000872
:1000300000000000000000005701000859010008FE
:100040005B0100085B0100085B0100085B01000820
:100050005B0100085B0100085B0100085B01000810
:100060005B0100085B0100085B0100085B01000800
:100070005B0100085B0100085B0100085B010008F0
:100080005B0100085B0100085B0100085B010008E0
:100090005B0100085B0100085B0100085B010008D0
:1000A0005B0100085B0100085B0100085B010008C0
:1000B0005B0100085B0100085B0100085B010008B0
:1000C00000F002F800F030F80CA030C8083824180E
:1000D0002D18671EA246AB4654465D46AC4201D180
:1000E00000F022F87E460F3EB6460FCC0126334282
:1000F00000D0FB1A3343A246AB461847400200002B
:10010000500200000023002400250026103A01D3ED
:1001100078C1FBD8520700D330C100D50B607047BF
:100120001FB51FBD10B510BD00F02DF81146FFF72B
:10013000F7FF00F069F800F045F803B4FFF7F2FFAD
:1001400003BC00F04BF80000074880470748004711
:10015000FEE7FEE7FEE7FEE7FEE7FEE704480549A7
:10016000054A064B70470000EB010008C10000087B
:100170006000002060060020600200206002002075
:10018000704770477047754600F024F8AE4605008A
:1001900069465346C008C000854618B020B5FFF731
:1001A000DDFF60BCB64600260027C0C5C0C5C0C57F
:1001B000C0C5C0C5C0C5C0C5C0C5403D490849008F
:1001C0008D46704710B50446C046C0462046FFF72E
:1001D000B4FF10BD004870470000002001491820FE
:1001E000ABBEFEE7260002007047704781B00021D9
:1001F00000910099814205D20099491C0091009913
:100200008142F9D301B0704782B00120019080048F
:100210003C490A6802430A603B4E30460C3801688C
:100220003A4A0A430260304614380168384A0A43A1
:100230000260FF21090602688A430260364F301FC0
:1002400001688904890F334C8C400168019AD203FC
:100250000068104049042BD41C25002810D12E48DA
:1002600047593068384330602046FFF7BFFF306899
:10027000B843294F3060281F002D0546EFD1DEE737
:1002800078593168014331602046FFF7AFFF281FDE
:10029000002D0546F4D11C25785931688143316021
:1002A0002046FFF7A3FF281F002D0546F4D1C6E71F
:1002B000002500280FD1184847593068384330606E
:1002C0002046FFF793FF3068B843134F30602D1D71
:1002D000202DF0D1B3E778593168014331602046D1
:1002E000FFF784FF2D1D202DF5D1002578593168A9
:1002F000814331602046FFF779FF2D1D202DF5D178
:100300009DE7C046141002401404004855550000F3
:100310005555010050C300001C03000801010000F6
:100320000201000004010000800100004001000003
:100330002001000010010000080100004C0300082B
:0C0340000000002060060000040100081E
:0400000508000149A5
:00000001FF
